{
  "contractName": "ipfs",
  "abi": [
    {
      "constant": true,
      "inputs": [],
      "name": "results",
      "outputs": [
        {
          "name": "",
          "type": "string"
        }
      ],
      "payable": false,
      "stateMutability": "view",
      "type": "function"
    },
    {
      "constant": true,
      "inputs": [],
      "name": "oraclizeID",
      "outputs": [
        {
          "name": "",
          "type": "bytes32"
        }
      ],
      "payable": false,
      "stateMutability": "view",
      "type": "function"
    },
    {
      "inputs": [],
      "payable": false,
      "stateMutability": "nonpayable",
      "type": "constructor"
    },
    {
      "payable": true,
      "stateMutability": "payable",
      "type": "fallback"
    },
    {
      "anonymous": false,
      "inputs": [
        {
          "indexed": false,
          "name": "result",
          "type": "string"
        }
      ],
      "name": "LogOraclizeResult",
      "type": "event"
    },
    {
      "constant": false,
      "inputs": [],
      "name": "getIPFSData",
      "outputs": [],
      "payable": false,
      "stateMutability": "nonpayable",
      "type": "function"
    },
    {
      "constant": false,
      "inputs": [
        {
          "name": "myid",
          "type": "bytes32"
        },
        {
          "name": "result",
          "type": "string"
        }
      ],
      "name": "__callback",
      "outputs": [],
      "payable": false,
      "stateMutability": "nonpayable",
      "type": "function"
    },
    {
      "constant": false,
      "inputs": [
        {
          "name": "myid",
          "type": "bytes32"
        },
        {
          "name": "result",
          "type": "string"
        },
        {
          "name": "proof",
          "type": "bytes"
        }
      ],
      "name": "__callback",
      "outputs": [],
      "payable": false,
      "stateMutability": "nonpayable",
      "type": "function"
    }
  ],
  "bytecode": "0x608060405234801561001057600080fd5b50736f485c8bf6fc43ea212e93bbf8ce046c7f1cb4756000806101000a81548173ffffffffffffffffffffffffffffffffffffffff021916908373ffffffffffffffffffffffffffffffffffffffff160217905550611115806100746000396000f30060806040526004361061006d576000357c0100000000000000000000000000000000000000000000000000000000900463ffffffff16806327dc297e1461006f57806338bbfa50146100e6578063a48bdb7c146101a3578063d33b722b14610233578063d98645c51461024a575b005b34801561007b57600080fd5b506100e46004803603810190808035600019169060200190929190803590602001908201803590602001908080601f016020809104026020016040519081016040528093929190818152602001838380828437820191505050505050919291929050505061027d565b005b3480156100f257600080fd5b506101a16004803603810190808035600019169060200190929190803590602001908201803590602001908080601f0160208091040260200160405190810160405280939291908181526020018383808284378201915050505050509192919290803590602001908201803590602001908080601f0160208091040260200160405190810160405280939291908181526020018383808284378201915050505050509192919290505050610375565b005b3480156101af57600080fd5b506101b861037a565b6040518080602001828103825283818151815260200191508051906020019080838360005b838110156101f85780820151818401526020810190506101dd565b50505050905090810190601f1680156102255780820380516001836020036101000a031916815260200191505b509250505060405180910390f35b34801561023f57600080fd5b50610248610418565b005b34801561025657600080fd5b5061025f6104b6565b60405180826000191660001916815260200191505060405180910390f35b6102856104bc565b73ffffffffffffffffffffffffffffffffffffffff163373ffffffffffffffffffffffffffffffffffffffff161415156102be57600080fd5b80600690805190602001906102d4929190611044565b507f2815ee1f0b16b8cbb7d1e88f4b89c58a774fd2635ca81dcad8bfd04d735dc251816040518080602001828103825283818151815260200191508051906020019080838360005b8381101561033757808201518184015260208101905061031c565b50505050905090810190601f1680156103645780820380516001836020036101000a031916815260200191505b509250505060405180910390a15050565b505050565b60068054600181600116156101000203166002900480601f0160208091040260200160405190810160405280929190818152602001828054600181600116156101000203166002900480156104105780601f106103e557610100808354040283529160200191610410565b820191906000526020600020905b8154815290600101906020018083116103f357829003601f168201915b505050505081565b6104b36040805190810160405280600481526020017f4950465300000000000000000000000000000000000000000000000000000000815250606060405190810160405280602e81526020017f516d633268705a46753365674642435a636d324a587250544d4d6259346b705281526020017f486750566e7178744571396e6557000000000000000000000000000000000000815250610703565b50565b60055481565b6000806000809054906101000a900473ffffffffffffffffffffffffffffffffffffffff1673ffffffffffffffffffffffffffffffffffffffff16148061052c5750600061052a6000809054906101000a900473ffffffffffffffffffffffffffffffffffffffff16610b8e565b145b1561053d5761053b6000610b99565b505b6000809054906101000a900473ffffffffffffffffffffffffffffffffffffffff1673ffffffffffffffffffffffffffffffffffffffff166338cc48316040518163ffffffff167c0100000000000000000000000000000000000000000000000000000000028152600401602060405180830381600087803b1580156105c257600080fd5b505af11580156105d6573d6000803e3d6000fd5b505050506040513d60208110156105ec57600080fd5b8101908080519060200190929190505050600160006101000a81548173ffffffffffffffffffffffffffffffffffffffff021916908373ffffffffffffffffffffffffffffffffffffffff160217905550600160009054906101000a900473ffffffffffffffffffffffffffffffffffffffff1673ffffffffffffffffffffffffffffffffffffffff1663c281d19e6040518163ffffffff167c0100000000000000000000000000000000000000000000000000000000028152600401602060405180830381600087803b1580156106c357600080fd5b505af11580156106d7573d6000803e3d6000fd5b505050506040513d60208110156106ed57600080fd5b8101908080519060200190929190505050905090565b60008060008060009054906101000a900473ffffffffffffffffffffffffffffffffffffffff1673ffffffffffffffffffffffffffffffffffffffff161480610775575060006107736000809054906101000a900473ffffffffffffffffffffffffffffffffffffffff16610b8e565b145b15610786576107846000610b99565b505b6000809054906101000a900473ffffffffffffffffffffffffffffffffffffffff1673ffffffffffffffffffffffffffffffffffffffff166338cc48316040518163ffffffff167c0100000000000000000000000000000000000000000000000000000000028152600401602060405180830381600087803b15801561080b57600080fd5b505af115801561081f573d6000803e3d6000fd5b505050506040513d602081101561083557600080fd5b8101908080519060200190929190505050600160006101000a81548173ffffffffffffffffffffffffffffffffffffffff021916908373ffffffffffffffffffffffffffffffffffffffff160217905550600160009054906101000a900473ffffffffffffffffffffffffffffffffffffffff1673ffffffffffffffffffffffffffffffffffffffff1663524f3889856040518263ffffffff167c01000000000000000000000000000000000000000000000000000000000281526004018080602001828103825283818151815260200191508051906020019080838360005b83811015610930578082015181840152602081019050610915565b50505050905090810190601f16801561095d5780820380516001836020036101000a031916815260200191505b5092505050602060405180830381600087803b15801561097c57600080fd5b505af1158015610990573d6000803e3d6000fd5b505050506040513d60208110156109a657600080fd5b8101908080519060200190929190505050905062030d403a02670de0b6b3a7640000018111156109dc5760006001029150610b87565b600160009054906101000a900473ffffffffffffffffffffffffffffffffffffffff1673ffffffffffffffffffffffffffffffffffffffff1663adf59f9982600087876040518563ffffffff167c0100000000000000000000000000000000000000000000000000000000028152600401808481526020018060200180602001838103835285818151815260200191508051906020019080838360005b83811015610a94578082015181840152602081019050610a79565b50505050905090810190601f168015610ac15780820380516001836020036101000a031916815260200191505b50838103825284818151815260200191508051906020019080838360005b83811015610afa578082015181840152602081019050610adf565b50505050905090810190601f168015610b275780820380516001836020036101000a031916815260200191505b50955050505050506020604051808303818588803b158015610b4857600080fd5b505af1158015610b5c573d6000803e3d6000fd5b50505050506040513d6020811015610b7357600080fd5b810190808051906020019092919050505091505b5092915050565b6000813b9050919050565b600080610bb9731d3b2638a7cc9f2cb3d298a3da7a90b67e5506ed610b8e565b1115610c5a57731d3b2638a7cc9f2cb3d298a3da7a90b67e5506ed6000806101000a81548173ffffffffffffffffffffffffffffffffffffffff021916908373ffffffffffffffffffffffffffffffffffffffff160217905550610c516040805190810160405280600b81526020017f6574685f6d61696e6e657400000000000000000000000000000000000000000081525061102a565b60019050611025565b6000610c7973c03a2615d5efaf5f49f60b7bb6583eaec212fdf1610b8e565b1115610d1a5773c03a2615d5efaf5f49f60b7bb6583eaec212fdf16000806101000a81548173ffffffffffffffffffffffffffffffffffffffff021916908373ffffffffffffffffffffffffffffffffffffffff160217905550610d116040805190810160405280600c81526020017f6574685f726f707374656e33000000000000000000000000000000000000000081525061102a565b60019050611025565b6000610d3973b7a07bcf2ba2f2703b24c0691b5278999c59ac7e610b8e565b1115610dda5773b7a07bcf2ba2f2703b24c0691b5278999c59ac7e6000806101000a81548173ffffffffffffffffffffffffffffffffffffffff021916908373ffffffffffffffffffffffffffffffffffffffff160217905550610dd16040805190810160405280600981526020017f6574685f6b6f76616e000000000000000000000000000000000000000000000081525061102a565b60019050611025565b6000610df973146500cfd35b22e4a392fe0adc06de1a1368ed48610b8e565b1115610e9a5773146500cfd35b22e4a392fe0adc06de1a1368ed486000806101000a81548173ffffffffffffffffffffffffffffffffffffffff021916908373ffffffffffffffffffffffffffffffffffffffff160217905550610e916040805190810160405280600b81526020017f6574685f72696e6b65627900000000000000000000000000000000000000000081525061102a565b60019050611025565b6000610eb9736f485c8bf6fc43ea212e93bbf8ce046c7f1cb475610b8e565b1115610f1c57736f485c8bf6fc43ea212e93bbf8ce046c7f1cb4756000806101000a81548173ffffffffffffffffffffffffffffffffffffffff021916908373ffffffffffffffffffffffffffffffffffffffff16021790555060019050611025565b6000610f3b7320e12a1f859b3feae5fb2a0a32c18f5a65555bbf610b8e565b1115610f9e577320e12a1f859b3feae5fb2a0a32c18f5a65555bbf6000806101000a81548173ffffffffffffffffffffffffffffffffffffffff021916908373ffffffffffffffffffffffffffffffffffffffff16021790555060019050611025565b6000610fbd7351efaf4c8b3c9afbd5ab9f4bbc82784ab6ef8faa610b8e565b1115611020577351efaf4c8b3c9afbd5ab9f4bbc82784ab6ef8faa6000806101000a81548173ffffffffffffffffffffffffffffffffffffffff021916908373ffffffffffffffffffffffffffffffffffffffff16021790555060019050611025565b600090505b919050565b8060029080519060200190611040929190611044565b5050565b828054600181600116156101000203166002900490600052602060002090601f016020900481019282601f1061108557805160ff19168380011785556110b3565b828001600101855582156110b3579182015b828111156110b2578251825591602001919060010190611097565b5b5090506110c091906110c4565b5090565b6110e691905b808211156110e25760008160009055506001016110ca565b5090565b905600a165627a7a723058208aa917f8471429023905ff64c1577653862cf50352c8d2a51cc7fbac48b6f63b0029",
  "source": "pragma solidity ^0.4.10;\n\nimport \"./usingOraclize.sol\";\n\n//contract extends usingOraclize contract\ncontract ipfs is usingOraclize {\n  bytes32 public oraclizeID;\n  string public results;\n  event LogOraclizeResult(string result);\n\n  //constructor put printed line from ethereum bridge in here!\n  function ipfs(){\n      OAR = OraclizeAddrResolverI(0x6f485C8BF6fc43eA212E93BBF8ce046C7f1cb475);\n  }\n  //QmautuU5VBF9KgYvhM5eB4VkXjMURXKVGEZWWWCcUxfVHy is the hash of 'Ethereum Meetup 28 march\\n' file stored on IPFS\n  function getIPFSData() {\n      oraclize_query(\"IPFS\", \"Qmc2hpZFu3egFBCZcm2JXrPTMMbY4kpRHgPVnqxtEq9neW\");\n  }\n\n  function __callback(bytes32 myid, string result) {\n      require (msg.sender == oraclize_cbAddress());\n      results = result;\n      // Trigger event\n      LogOraclizeResult(result);\n  }\n\n  //fallback function\n  function () payable{\n\n  }\n}\n",
  "sourcePath": "/Users/simonmullaney/Desktop/EthereumDevMeetup/contracts/IPFS.sol",
  "compiler": {
    "name": "solc",
    "version": "0.4.24+commit.e67f0147.Emscripten.clang"
  },
  "schemaVersion": "2.0.1",
  "updatedAt": "2018-09-18T07:31:01.031Z"
}